{
  "_format": "hh-sol-artifact-1",
  "contractName": "GrowBitFaucet",
  "sourceName": "contracts/GrowBitFaucet.sol",
  "abi": [
    {
      "inputs": [
        {
          "internalType": "uint256",
          "name": "_dripAmount",
          "type": "uint256"
        },
        {
          "internalType": "uint256",
          "name": "_dripCooldown",
          "type": "uint256"
        }
      ],
      "stateMutability": "nonpayable",
      "type": "constructor"
    },
    {
      "anonymous": false,
      "inputs": [
        {
          "indexed": false,
          "internalType": "uint256",
          "name": "newAmount",
          "type": "uint256"
        },
        {
          "indexed": false,
          "internalType": "uint256",
          "name": "newCooldown",
          "type": "uint256"
        }
      ],
      "name": "DripConfigUpdated",
      "type": "event"
    },
    {
      "anonymous": false,
      "inputs": [
        {
          "indexed": true,
          "internalType": "address",
          "name": "recipient",
          "type": "address"
        },
        {
          "indexed": false,
          "internalType": "uint256",
          "name": "amount",
          "type": "uint256"
        }
      ],
      "name": "DripSent",
      "type": "event"
    },
    {
      "anonymous": false,
      "inputs": [
        {
          "indexed": true,
          "internalType": "address",
          "name": "funder",
          "type": "address"
        },
        {
          "indexed": false,
          "internalType": "uint256",
          "name": "amount",
          "type": "uint256"
        }
      ],
      "name": "FaucetFunded",
      "type": "event"
    },
    {
      "inputs": [],
      "name": "dripAmount",
      "outputs": [
        {
          "internalType": "uint256",
          "name": "",
          "type": "uint256"
        }
      ],
      "stateMutability": "view",
      "type": "function"
    },
    {
      "inputs": [],
      "name": "dripCooldown",
      "outputs": [
        {
          "internalType": "uint256",
          "name": "",
          "type": "uint256"
        }
      ],
      "stateMutability": "view",
      "type": "function"
    },
    {
      "inputs": [],
      "name": "dripsPerUser",
      "outputs": [
        {
          "internalType": "uint256",
          "name": "",
          "type": "uint256"
        }
      ],
      "stateMutability": "view",
      "type": "function"
    },
    {
      "inputs": [],
      "name": "fundFaucet",
      "outputs": [],
      "stateMutability": "payable",
      "type": "function"
    },
    {
      "inputs": [
        {
          "internalType": "address",
          "name": "_user",
          "type": "address"
        }
      ],
      "name": "isEligibleForDrip",
      "outputs": [
        {
          "internalType": "bool",
          "name": "",
          "type": "bool"
        }
      ],
      "stateMutability": "view",
      "type": "function"
    },
    {
      "inputs": [
        {
          "internalType": "address",
          "name": "",
          "type": "address"
        }
      ],
      "name": "lastDripTime",
      "outputs": [
        {
          "internalType": "uint256",
          "name": "",
          "type": "uint256"
        }
      ],
      "stateMutability": "view",
      "type": "function"
    },
    {
      "inputs": [],
      "name": "owner",
      "outputs": [
        {
          "internalType": "address",
          "name": "",
          "type": "address"
        }
      ],
      "stateMutability": "view",
      "type": "function"
    },
    {
      "inputs": [],
      "name": "requestDrip",
      "outputs": [],
      "stateMutability": "nonpayable",
      "type": "function"
    },
    {
      "inputs": [
        {
          "internalType": "uint256",
          "name": "_dripAmount",
          "type": "uint256"
        },
        {
          "internalType": "uint256",
          "name": "_dripCooldown",
          "type": "uint256"
        }
      ],
      "name": "setDripConfig",
      "outputs": [],
      "stateMutability": "nonpayable",
      "type": "function"
    },
    {
      "inputs": [
        {
          "internalType": "uint256",
          "name": "_dripsPerUser",
          "type": "uint256"
        }
      ],
      "name": "setDripsPerUser",
      "outputs": [],
      "stateMutability": "nonpayable",
      "type": "function"
    },
    {
      "inputs": [
        {
          "internalType": "uint256",
          "name": "_amount",
          "type": "uint256"
        }
      ],
      "name": "withdrawFunds",
      "outputs": [],
      "stateMutability": "nonpayable",
      "type": "function"
    }
  ],
  "bytecode": "0x60806040523480156200001157600080fd5b506040516200112d3803806200112d8339818101604052810190620000379190620000d4565b336000806101000a81548173ffffffffffffffffffffffffffffffffffffffff021916908373ffffffffffffffffffffffffffffffffffffffff16021790555081600281905550806003819055506001808190555050506200011b565b600080fd5b6000819050919050565b620000ae8162000099565b8114620000ba57600080fd5b50565b600081519050620000ce81620000a3565b92915050565b60008060408385031215620000ee57620000ed62000094565b5b6000620000fe85828601620000bd565b92505060206200011185828601620000bd565b9150509250929050565b611002806200012b6000396000f3fe60806040526004361061009c5760003560e01c80636a211d6a116100645780636a211d6a1461017257806379aa64af1461017c5780638b8a60bd146101a55780638da5cb5b146101e25780638f65aa881461020d578063d97679df146102385761009c565b8063155dd5ee146100a157806323b7f4b9146100ca57806335a1529b14610107578063434ab101146101325780635f6071ea14610149575b600080fd5b3480156100ad57600080fd5b506100c860048036038101906100c39190610a4d565b610263565b005b3480156100d657600080fd5b506100f160048036038101906100ec9190610ad8565b610405565b6040516100fe9190610b20565b60405180910390f35b34801561011357600080fd5b5061011c6104c2565b6040516101299190610b4a565b60405180910390f35b34801561013e57600080fd5b506101476104c8565b005b34801561015557600080fd5b50610170600480360381019061016b9190610a4d565b6107c6565b005b61017a61085e565b005b34801561018857600080fd5b506101a3600480360381019061019e9190610b65565b6108f1565b005b3480156101b157600080fd5b506101cc60048036038101906101c79190610ad8565b6109ca565b6040516101d99190610b4a565b60405180910390f35b3480156101ee57600080fd5b506101f76109e2565b6040516102049190610bb4565b60405180910390f35b34801561021957600080fd5b50610222610a06565b60405161022f9190610b4a565b60405180910390f35b34801561024457600080fd5b5061024d610a0c565b60405161025a9190610b4a565b60405180910390f35b60008054906101000a900473ffffffffffffffffffffffffffffffffffffffff1673ffffffffffffffffffffffffffffffffffffffff163373ffffffffffffffffffffffffffffffffffffffff16146102f1576040517f08c379a00000000000000000000000000000000000000000000000000000000081526004016102e890610c52565b60405180910390fd5b47811115610334576040517f08c379a000000000000000000000000000000000000000000000000000000000815260040161032b90610cbe565b60405180910390fd5b60008060009054906101000a900473ffffffffffffffffffffffffffffffffffffffff1673ffffffffffffffffffffffffffffffffffffffff168260405161037b90610d0f565b60006040518083038185875af1925050503d80600081146103b8576040519150601f19603f3d011682016040523d82523d6000602084013e6103bd565b606091505b5050905080610401576040517f08c379a00000000000000000000000000000000000000000000000000000000081526004016103f890610d70565b60405180910390fd5b5050565b600080600460008473ffffffffffffffffffffffffffffffffffffffff1673ffffffffffffffffffffffffffffffffffffffff168152602001908152602001600020540361045657600190506104bd565b600060019050600154811080156104b95750600354600460008573ffffffffffffffffffffffffffffffffffffffff1673ffffffffffffffffffffffffffffffffffffffff168152602001908152602001600020546104b59190610dbf565b4210155b9150505b919050565b60025481565b60025447101561050d576040517f08c379a000000000000000000000000000000000000000000000000000000000815260040161050490610e3f565b60405180910390fd5b600080600460003373ffffffffffffffffffffffffffffffffffffffff1673ffffffffffffffffffffffffffffffffffffffff168152602001908152602001600020541461055c57600161055f565b60005b60ff16905060015481106105a8576040517f08c379a000000000000000000000000000000000000000000000000000000000815260040161059f90610eab565b60405180910390fd5b6000600460003373ffffffffffffffffffffffffffffffffffffffff1673ffffffffffffffffffffffffffffffffffffffff16815260200190815260200160002054111561068057600354600460003373ffffffffffffffffffffffffffffffffffffffff1673ffffffffffffffffffffffffffffffffffffffff1681526020019081526020016000205461063d9190610dbf565b42101561067f576040517f08c379a000000000000000000000000000000000000000000000000000000000815260040161067690610f17565b60405180910390fd5b5b42600460003373ffffffffffffffffffffffffffffffffffffffff1673ffffffffffffffffffffffffffffffffffffffff1681526020019081526020016000208190555060003373ffffffffffffffffffffffffffffffffffffffff166002546040516106ec90610d0f565b60006040518083038185875af1925050503d8060008114610729576040519150601f19603f3d011682016040523d82523d6000602084013e61072e565b606091505b5050905080610772576040517f08c379a000000000000000000000000000000000000000000000000000000000815260040161076990610d70565b60405180910390fd5b3373ffffffffffffffffffffffffffffffffffffffff167fe5b5124070c4a8aa571f88b54e79bab912678e4ec725a919ab7f1b09bb278e8b6002546040516107ba9190610b4a565b60405180910390a25050565b60008054906101000a900473ffffffffffffffffffffffffffffffffffffffff1673ffffffffffffffffffffffffffffffffffffffff163373ffffffffffffffffffffffffffffffffffffffff1614610854576040517f08c379a000000000000000000000000000000000000000000000000000000000815260040161084b90610c52565b60405180910390fd5b8060018190555050565b600034116108a1576040517f08c379a000000000000000000000000000000000000000000000000000000000815260040161089890610f83565b60405180910390fd5b3373ffffffffffffffffffffffffffffffffffffffff167f7a5b46da290ee3d909b4070dcddb80b741e0365f2deb452791308c5c079fc573346040516108e79190610b4a565b60405180910390a2565b60008054906101000a900473ffffffffffffffffffffffffffffffffffffffff1673ffffffffffffffffffffffffffffffffffffffff163373ffffffffffffffffffffffffffffffffffffffff161461097f576040517f08c379a000000000000000000000000000000000000000000000000000000000815260040161097690610c52565b60405180910390fd5b81600281905550806003819055507f3816e38614a9765911a403d1838d43f2fd418453e0e21a19c13397e2fb174e1682826040516109be929190610fa3565b60405180910390a15050565b60046020528060005260406000206000915090505481565b60008054906101000a900473ffffffffffffffffffffffffffffffffffffffff1681565b60035481565b60015481565b600080fd5b6000819050919050565b610a2a81610a17565b8114610a3557600080fd5b50565b600081359050610a4781610a21565b92915050565b600060208284031215610a6357610a62610a12565b5b6000610a7184828501610a38565b91505092915050565b600073ffffffffffffffffffffffffffffffffffffffff82169050919050565b6000610aa582610a7a565b9050919050565b610ab581610a9a565b8114610ac057600080fd5b50565b600081359050610ad281610aac565b92915050565b600060208284031215610aee57610aed610a12565b5b6000610afc84828501610ac3565b91505092915050565b60008115159050919050565b610b1a81610b05565b82525050565b6000602082019050610b356000830184610b11565b92915050565b610b4481610a17565b82525050565b6000602082019050610b5f6000830184610b3b565b92915050565b60008060408385031215610b7c57610b7b610a12565b5b6000610b8a85828601610a38565b9250506020610b9b85828601610a38565b9150509250929050565b610bae81610a9a565b82525050565b6000602082019050610bc96000830184610ba5565b92915050565b600082825260208201905092915050565b7f4f6e6c79206f776e65722063616e2063616c6c20746869732066756e6374696f60008201527f6e00000000000000000000000000000000000000000000000000000000000000602082015250565b6000610c3c602183610bcf565b9150610c4782610be0565b604082019050919050565b60006020820190508181036000830152610c6b81610c2f565b9050919050565b7f496e73756666696369656e742062616c616e6365000000000000000000000000600082015250565b6000610ca8601483610bcf565b9150610cb382610c72565b602082019050919050565b60006020820190508181036000830152610cd781610c9b565b9050919050565b600081905092915050565b50565b6000610cf9600083610cde565b9150610d0482610ce9565b600082019050919050565b6000610d1a82610cec565b9150819050919050565b7f5472616e73666572206661696c65640000000000000000000000000000000000600082015250565b6000610d5a600f83610bcf565b9150610d6582610d24565b602082019050919050565b60006020820190508181036000830152610d8981610d4d565b9050919050565b7f4e487b7100000000000000000000000000000000000000000000000000000000600052601160045260246000fd5b6000610dca82610a17565b9150610dd583610a17565b9250828201905080821115610ded57610dec610d90565b5b92915050565b7f46617563657420697320656d7074790000000000000000000000000000000000600082015250565b6000610e29600f83610bcf565b9150610e3482610df3565b602082019050919050565b60006020820190508181036000830152610e5881610e1c565b9050919050565b7f4d6178696d756d2064726970206c696d69742072656163686564000000000000600082015250565b6000610e95601a83610bcf565b9150610ea082610e5f565b602082019050919050565b60006020820190508181036000830152610ec481610e88565b9050919050565b7f506c65617365207761697420666f7220636f6f6c646f776e20706572696f6400600082015250565b6000610f01601f83610bcf565b9150610f0c82610ecb565b602082019050919050565b60006020820190508181036000830152610f3081610ef4565b9050919050565b7f4d7573742073656e642045544820746f2066756e642066617563657400000000600082015250565b6000610f6d601c83610bcf565b9150610f7882610f37565b602082019050919050565b60006020820190508181036000830152610f9c81610f60565b9050919050565b6000604082019050610fb86000830185610b3b565b610fc56020830184610b3b565b939250505056fea2646970667358221220776dc8411a093c5ea622aeb294f683dc10ede1929ea37569c35c06f25775c41264736f6c63430008140033",
  "linkReferences": {},
  "deployedLinkReferences": {}
}