{
  "_format": "hh-sol-artifact-1",
  "contractName": "GrowBitStake",
  "sourceName": "contracts/GrowBitStake.sol",
  "abi": [
    {
      "inputs": [],
      "stateMutability": "nonpayable",
      "type": "constructor"
    },
    {
      "anonymous": false,
      "inputs": [
        {
          "indexed": true,
          "internalType": "uint256",
          "name": "goalId",
          "type": "uint256"
        },
        {
          "indexed": true,
          "internalType": "address",
          "name": "user",
          "type": "address"
        },
        {
          "indexed": false,
          "internalType": "uint256",
          "name": "stakedAmount",
          "type": "uint256"
        }
      ],
      "name": "GoalCreated",
      "type": "event"
    },
    {
      "anonymous": false,
      "inputs": [
        {
          "indexed": true,
          "internalType": "uint256",
          "name": "goalId",
          "type": "uint256"
        },
        {
          "indexed": true,
          "internalType": "address",
          "name": "user",
          "type": "address"
        },
        {
          "indexed": false,
          "internalType": "uint256",
          "name": "amount",
          "type": "uint256"
        }
      ],
      "name": "RewardClaimed",
      "type": "event"
    },
    {
      "anonymous": false,
      "inputs": [
        {
          "indexed": true,
          "internalType": "uint256",
          "name": "goalId",
          "type": "uint256"
        },
        {
          "indexed": true,
          "internalType": "address",
          "name": "user",
          "type": "address"
        },
        {
          "indexed": false,
          "internalType": "uint256",
          "name": "completedCount",
          "type": "uint256"
        },
        {
          "indexed": false,
          "internalType": "uint256",
          "name": "totalCount",
          "type": "uint256"
        }
      ],
      "name": "TaskCompleted",
      "type": "event"
    },
    {
      "anonymous": false,
      "inputs": [
        {
          "indexed": false,
          "internalType": "address",
          "name": "verifier",
          "type": "address"
        }
      ],
      "name": "VerifierAdded",
      "type": "event"
    },
    {
      "anonymous": false,
      "inputs": [
        {
          "indexed": false,
          "internalType": "address",
          "name": "verifier",
          "type": "address"
        }
      ],
      "name": "VerifierRemoved",
      "type": "event"
    },
    {
      "inputs": [
        {
          "internalType": "address",
          "name": "_verifier",
          "type": "address"
        }
      ],
      "name": "addVerifier",
      "outputs": [],
      "stateMutability": "nonpayable",
      "type": "function"
    },
    {
      "inputs": [
        {
          "internalType": "uint256",
          "name": "_goalId",
          "type": "uint256"
        }
      ],
      "name": "claimReward",
      "outputs": [],
      "stateMutability": "nonpayable",
      "type": "function"
    },
    {
      "inputs": [
        {
          "internalType": "uint256",
          "name": "_goalId",
          "type": "uint256"
        },
        {
          "internalType": "uint256",
          "name": "_completedCount",
          "type": "uint256"
        }
      ],
      "name": "completeTask",
      "outputs": [],
      "stateMutability": "nonpayable",
      "type": "function"
    },
    {
      "inputs": [
        {
          "internalType": "string",
          "name": "_description",
          "type": "string"
        },
        {
          "internalType": "uint256",
          "name": "_taskCount",
          "type": "uint256"
        },
        {
          "internalType": "uint256",
          "name": "_deadline",
          "type": "uint256"
        }
      ],
      "name": "createGoal",
      "outputs": [],
      "stateMutability": "payable",
      "type": "function"
    },
    {
      "inputs": [],
      "name": "fundRewards",
      "outputs": [],
      "stateMutability": "payable",
      "type": "function"
    },
    {
      "inputs": [
        {
          "internalType": "uint256",
          "name": "_goalId",
          "type": "uint256"
        }
      ],
      "name": "getGoalDetails",
      "outputs": [
        {
          "components": [
            {
              "internalType": "uint256",
              "name": "id",
              "type": "uint256"
            },
            {
              "internalType": "address",
              "name": "user",
              "type": "address"
            },
            {
              "internalType": "string",
              "name": "description",
              "type": "string"
            },
            {
              "internalType": "uint256",
              "name": "stakedAmount",
              "type": "uint256"
            },
            {
              "internalType": "uint256",
              "name": "taskCount",
              "type": "uint256"
            },
            {
              "internalType": "uint256",
              "name": "completedTaskCount",
              "type": "uint256"
            },
            {
              "internalType": "uint256",
              "name": "createdAt",
              "type": "uint256"
            },
            {
              "internalType": "uint256",
              "name": "deadline",
              "type": "uint256"
            },
            {
              "internalType": "bool",
              "name": "claimed",
              "type": "bool"
            }
          ],
          "internalType": "struct GrowBitStake.Goal",
          "name": "",
          "type": "tuple"
        }
      ],
      "stateMutability": "view",
      "type": "function"
    },
    {
      "inputs": [
        {
          "internalType": "address",
          "name": "_user",
          "type": "address"
        }
      ],
      "name": "getUserGoals",
      "outputs": [
        {
          "internalType": "uint256[]",
          "name": "",
          "type": "uint256[]"
        }
      ],
      "stateMutability": "view",
      "type": "function"
    },
    {
      "inputs": [],
      "name": "goalIdCounter",
      "outputs": [
        {
          "internalType": "uint256",
          "name": "",
          "type": "uint256"
        }
      ],
      "stateMutability": "view",
      "type": "function"
    },
    {
      "inputs": [
        {
          "internalType": "uint256",
          "name": "",
          "type": "uint256"
        }
      ],
      "name": "goals",
      "outputs": [
        {
          "internalType": "uint256",
          "name": "id",
          "type": "uint256"
        },
        {
          "internalType": "address",
          "name": "user",
          "type": "address"
        },
        {
          "internalType": "string",
          "name": "description",
          "type": "string"
        },
        {
          "internalType": "uint256",
          "name": "stakedAmount",
          "type": "uint256"
        },
        {
          "internalType": "uint256",
          "name": "taskCount",
          "type": "uint256"
        },
        {
          "internalType": "uint256",
          "name": "completedTaskCount",
          "type": "uint256"
        },
        {
          "internalType": "uint256",
          "name": "createdAt",
          "type": "uint256"
        },
        {
          "internalType": "uint256",
          "name": "deadline",
          "type": "uint256"
        },
        {
          "internalType": "bool",
          "name": "claimed",
          "type": "bool"
        }
      ],
      "stateMutability": "view",
      "type": "function"
    },
    {
      "inputs": [],
      "name": "owner",
      "outputs": [
        {
          "internalType": "address",
          "name": "",
          "type": "address"
        }
      ],
      "stateMutability": "view",
      "type": "function"
    },
    {
      "inputs": [
        {
          "internalType": "address",
          "name": "_verifier",
          "type": "address"
        }
      ],
      "name": "removeVerifier",
      "outputs": [],
      "stateMutability": "nonpayable",
      "type": "function"
    },
    {
      "inputs": [
        {
          "internalType": "address",
          "name": "",
          "type": "address"
        },
        {
          "internalType": "uint256",
          "name": "",
          "type": "uint256"
        }
      ],
      "name": "userGoals",
      "outputs": [
        {
          "internalType": "uint256",
          "name": "",
          "type": "uint256"
        }
      ],
      "stateMutability": "view",
      "type": "function"
    },
    {
      "inputs": [
        {
          "internalType": "address",
          "name": "",
          "type": "address"
        }
      ],
      "name": "verifiers",
      "outputs": [
        {
          "internalType": "bool",
          "name": "",
          "type": "bool"
        }
      ],
      "stateMutability": "view",
      "type": "function"
    },
    {
      "inputs": [
        {
          "internalType": "uint256",
          "name": "_goalId",
          "type": "uint256"
        }
      ],
      "name": "withdrawExpiredStake",
      "outputs": [],
      "stateMutability": "nonpayable",
      "type": "function"
    }
  ],
  "bytecode": "0x608060405234801561001057600080fd5b50336000806101000a81548173ffffffffffffffffffffffffffffffffffffffff021916908373ffffffffffffffffffffffffffffffffffffffff1602179055506001600460003373ffffffffffffffffffffffffffffffffffffffff1673ffffffffffffffffffffffffffffffffffffffff16815260200190815260200160002060006101000a81548160ff021916908315150217905550600180819055506127d2806100bf6000396000f3fe6080604052600436106100dd5760003560e01c80638da5cb5b1161007f578063b6b3eedf11610059578063b6b3eedf146102cb578063c0630e2714610308578063ca2dfd0a14610331578063ff18bf0b1461035a576100dd565b80638da5cb5b1461024e5780639000b3d614610279578063ae169a50146102a2576100dd565b806361449ca2116100bb57806361449ca21461016457806368f5ab2d146101a95780636c824487146101d457806371444dd014610211576100dd565b8063108c8ae4146100e2578063113d22781461010b57806335742c6314610127575b600080fd5b3480156100ee57600080fd5b50610109600480360381019061010491906114e3565b610364565b005b61012560048036038101906101209190611669565b6105ba565b005b34801561013357600080fd5b5061014e60048036038101906101499190611736565b610844565b60405161015b9190611821565b60405180910390f35b34801561017057600080fd5b5061018b60048036038101906101869190611843565b6108db565b6040516101a099989796959493929190611928565b60405180910390f35b3480156101b557600080fd5b506101be6109de565b6040516101cb91906119bc565b60405180910390f35b3480156101e057600080fd5b506101fb60048036038101906101f69190611736565b6109e4565b60405161020891906119d7565b60405180910390f35b34801561021d57600080fd5b5061023860048036038101906102339190611843565b610a04565b6040516102459190611b1f565b60405180910390f35b34801561025a57600080fd5b50610263610b71565b6040516102709190611b41565b60405180910390f35b34801561028557600080fd5b506102a0600480360381019061029b9190611736565b610b95565b005b3480156102ae57600080fd5b506102c960048036038101906102c49190611843565b610d24565b005b3480156102d757600080fd5b506102f260048036038101906102ed9190611b5c565b610fde565b6040516102ff91906119bc565b60405180910390f35b34801561031457600080fd5b5061032f600480360381019061032a9190611843565b61100f565b005b34801561033d57600080fd5b5061035860048036038101906103539190611736565b611287565b005b610362611433565b005b600460003373ffffffffffffffffffffffffffffffffffffffff1673ffffffffffffffffffffffffffffffffffffffff16815260200190815260200160002060009054906101000a900460ff166103f0576040517f08c379a00000000000000000000000000000000000000000000000000000000081526004016103e790611c0e565b60405180910390fd5b6000600260008481526020019081526020016000209050600073ffffffffffffffffffffffffffffffffffffffff168160010160009054906101000a900473ffffffffffffffffffffffffffffffffffffffff1673ffffffffffffffffffffffffffffffffffffffff160361049a576040517f08c379a000000000000000000000000000000000000000000000000000000000815260040161049190611c7a565b60405180910390fd5b8060080160009054906101000a900460ff16156104ec576040517f08c379a00000000000000000000000000000000000000000000000000000000081526004016104e390611ce6565b60405180910390fd5b8060040154821115610533576040517f08c379a000000000000000000000000000000000000000000000000000000000815260040161052a90611d78565b60405180910390fd5b8181600501819055508060010160009054906101000a900473ffffffffffffffffffffffffffffffffffffffff1673ffffffffffffffffffffffffffffffffffffffff16837fefef8593ec020b84769ddb5cf4469accbbd22d882a354bee97694405126ca6948484600401546040516105ad929190611d98565b60405180910390a3505050565b600034116105fd576040517f08c379a00000000000000000000000000000000000000000000000000000000081526004016105f490611e0d565b60405180910390fd5b60008211610640576040517f08c379a000000000000000000000000000000000000000000000000000000000815260040161063790611e79565b60405180910390fd5b600060015490506001600081548092919061065a90611ec8565b91905055506040518061012001604052808281526020013373ffffffffffffffffffffffffffffffffffffffff1681526020018581526020013481526020018481526020016000815260200142815260200183815260200160001515815250600260008381526020019081526020016000206000820151816000015560208201518160010160006101000a81548173ffffffffffffffffffffffffffffffffffffffff021916908373ffffffffffffffffffffffffffffffffffffffff1602179055506040820151816002019081610732919061211c565b50606082015181600301556080820151816004015560a0820151816005015560c0820151816006015560e082015181600701556101008201518160080160006101000a81548160ff021916908315150217905550905050600360003373ffffffffffffffffffffffffffffffffffffffff1673ffffffffffffffffffffffffffffffffffffffff1681526020019081526020016000208190806001815401808255809150506001900390600052602060002001600090919091909150553373ffffffffffffffffffffffffffffffffffffffff16817fb2986a32286583241a4d805815e7d081d6ef705810bc3cbd0c6ac8136d3e0fb03460405161083691906119bc565b60405180910390a350505050565b6060600360008373ffffffffffffffffffffffffffffffffffffffff1673ffffffffffffffffffffffffffffffffffffffff1681526020019081526020016000208054806020026020016040519081016040528092919081815260200182805480156108cf57602002820191906000526020600020905b8154815260200190600101908083116108bb575b50505050509050919050565b60026020528060005260406000206000915090508060000154908060010160009054906101000a900473ffffffffffffffffffffffffffffffffffffffff169080600201805461092a90611f3f565b80601f016020809104026020016040519081016040528092919081815260200182805461095690611f3f565b80156109a35780601f10610978576101008083540402835291602001916109a3565b820191906000526020600020905b81548152906001019060200180831161098657829003601f168201915b5050505050908060030154908060040154908060050154908060060154908060070154908060080160009054906101000a900460ff16905089565b60015481565b60046020528060005260406000206000915054906101000a900460ff1681565b610a0c611435565b6002600083815260200190815260200160002060405180610120016040529081600082015481526020016001820160009054906101000a900473ffffffffffffffffffffffffffffffffffffffff1673ffffffffffffffffffffffffffffffffffffffff1673ffffffffffffffffffffffffffffffffffffffff168152602001600282018054610a9b90611f3f565b80601f0160208091040260200160405190810160405280929190818152602001828054610ac790611f3f565b8015610b145780601f10610ae957610100808354040283529160200191610b14565b820191906000526020600020905b815481529060010190602001808311610af757829003601f168201915b5050505050815260200160038201548152602001600482015481526020016005820154815260200160068201548152602001600782015481526020016008820160009054906101000a900460ff1615151515815250509050919050565b60008054906101000a900473ffffffffffffffffffffffffffffffffffffffff1681565b60008054906101000a900473ffffffffffffffffffffffffffffffffffffffff1673ffffffffffffffffffffffffffffffffffffffff163373ffffffffffffffffffffffffffffffffffffffff1614610c23576040517f08c379a0000000000000000000000000000000000000000000000000000000008152600401610c1a90612260565b60405180910390fd5b600073ffffffffffffffffffffffffffffffffffffffff168173ffffffffffffffffffffffffffffffffffffffff1603610c92576040517f08c379a0000000000000000000000000000000000000000000000000000000008152600401610c89906122cc565b60405180910390fd5b6001600460008373ffffffffffffffffffffffffffffffffffffffff1673ffffffffffffffffffffffffffffffffffffffff16815260200190815260200160002060006101000a81548160ff0219169083151502179055507f6d05492139c5ea989514a5d2150c028041e5c087e2a39967f67dc7d2655adb8181604051610d199190611b41565b60405180910390a150565b60006002600083815260200190815260200160002090508060010160009054906101000a900473ffffffffffffffffffffffffffffffffffffffff1673ffffffffffffffffffffffffffffffffffffffff163373ffffffffffffffffffffffffffffffffffffffff1614610dcd576040517f08c379a0000000000000000000000000000000000000000000000000000000008152600401610dc490612338565b60405180910390fd5b8060040154816005015414610e17576040517f08c379a0000000000000000000000000000000000000000000000000000000008152600401610e0e906123a4565b60405180910390fd5b8060080160009054906101000a900460ff1615610e69576040517f08c379a0000000000000000000000000000000000000000000000000000000008152600401610e6090612410565b60405180910390fd5b60018160080160006101000a81548160ff021916908315150217905550600081600301549050600047905081811115610edc5760006064600584610ead9190612430565b610eb791906124a1565b90508282610ec591906124d2565b8111610eda578083610ed79190612506565b92505b505b3373ffffffffffffffffffffffffffffffffffffffff16847f24b5efa61dd1cfc659205a97fb8ed868f3cb8c81922bab2b96423e5de1de2cb784604051610f2391906119bc565b60405180910390a360003373ffffffffffffffffffffffffffffffffffffffff1683604051610f519061256b565b60006040518083038185875af1925050503d8060008114610f8e576040519150601f19603f3d011682016040523d82523d6000602084013e610f93565b606091505b5050905080610fd7576040517f08c379a0000000000000000000000000000000000000000000000000000000008152600401610fce906125cc565b60405180910390fd5b5050505050565b60036020528160005260406000208181548110610ffa57600080fd5b90600052602060002001600091509150505481565b60006002600083815260200190815260200160002090508060010160009054906101000a900473ffffffffffffffffffffffffffffffffffffffff1673ffffffffffffffffffffffffffffffffffffffff163373ffffffffffffffffffffffffffffffffffffffff16146110b8576040517f08c379a00000000000000000000000000000000000000000000000000000000081526004016110af90612638565b60405180910390fd5b60008160070154116110ff576040517f08c379a00000000000000000000000000000000000000000000000000000000081526004016110f6906126a4565b60405180910390fd5b80600701544211611145576040517f08c379a000000000000000000000000000000000000000000000000000000000815260040161113c90612710565b60405180910390fd5b8060080160009054906101000a900460ff1615611197576040517f08c379a000000000000000000000000000000000000000000000000000000000815260040161118e90612410565b60405180910390fd5b60018160080160006101000a81548160ff02191690831515021790555060006064605a83600301546111c99190612430565b6111d391906124a1565b905060003373ffffffffffffffffffffffffffffffffffffffff16826040516111fb9061256b565b60006040518083038185875af1925050503d8060008114611238576040519150601f19603f3d011682016040523d82523d6000602084013e61123d565b606091505b5050905080611281576040517f08c379a0000000000000000000000000000000000000000000000000000000008152600401611278906125cc565b60405180910390fd5b50505050565b60008054906101000a900473ffffffffffffffffffffffffffffffffffffffff1673ffffffffffffffffffffffffffffffffffffffff163373ffffffffffffffffffffffffffffffffffffffff1614611315576040517f08c379a000000000000000000000000000000000000000000000000000000000815260040161130c90612260565b60405180910390fd5b600460008273ffffffffffffffffffffffffffffffffffffffff1673ffffffffffffffffffffffffffffffffffffffff16815260200190815260200160002060009054906101000a900460ff166113a1576040517f08c379a00000000000000000000000000000000000000000000000000000000081526004016113989061277c565b60405180910390fd5b6000600460008373ffffffffffffffffffffffffffffffffffffffff1673ffffffffffffffffffffffffffffffffffffffff16815260200190815260200160002060006101000a81548160ff0219169083151502179055507f44a3cd4eb5cc5748f6169df057b1cb2ae4c383e87cd94663c430e095d4cba424816040516114289190611b41565b60405180910390a150565b565b60405180610120016040528060008152602001600073ffffffffffffffffffffffffffffffffffffffff1681526020016060815260200160008152602001600081526020016000815260200160008152602001600081526020016000151581525090565b6000604051905090565b600080fd5b600080fd5b6000819050919050565b6114c0816114ad565b81146114cb57600080fd5b50565b6000813590506114dd816114b7565b92915050565b600080604083850312156114fa576114f96114a3565b5b6000611508858286016114ce565b9250506020611519858286016114ce565b9150509250929050565b600080fd5b600080fd5b6000601f19601f8301169050919050565b7f4e487b7100000000000000000000000000000000000000000000000000000000600052604160045260246000fd5b6115768261152d565b810181811067ffffffffffffffff821117156115955761159461153e565b5b80604052505050565b60006115a8611499565b90506115b4828261156d565b919050565b600067ffffffffffffffff8211156115d4576115d361153e565b5b6115dd8261152d565b9050602081019050919050565b82818337600083830152505050565b600061160c611607846115b9565b61159e565b90508281526020810184848401111561162857611627611528565b5b6116338482856115ea565b509392505050565b600082601f8301126116505761164f611523565b5b81356116608482602086016115f9565b91505092915050565b600080600060608486031215611682576116816114a3565b5b600084013567ffffffffffffffff8111156116a05761169f6114a8565b5b6116ac8682870161163b565b93505060206116bd868287016114ce565b92505060406116ce868287016114ce565b9150509250925092565b600073ffffffffffffffffffffffffffffffffffffffff82169050919050565b6000611703826116d8565b9050919050565b611713816116f8565b811461171e57600080fd5b50565b6000813590506117308161170a565b92915050565b60006020828403121561174c5761174b6114a3565b5b600061175a84828501611721565b91505092915050565b600081519050919050565b600082825260208201905092915050565b6000819050602082019050919050565b611798816114ad565b82525050565b60006117aa838361178f565b60208301905092915050565b6000602082019050919050565b60006117ce82611763565b6117d8818561176e565b93506117e38361177f565b8060005b838110156118145781516117fb888261179e565b9750611806836117b6565b9250506001810190506117e7565b5085935050505092915050565b6000602082019050818103600083015261183b81846117c3565b905092915050565b600060208284031215611859576118586114a3565b5b6000611867848285016114ce565b91505092915050565b611879816114ad565b82525050565b611888816116f8565b82525050565b600081519050919050565b600082825260208201905092915050565b60005b838110156118c85780820151818401526020810190506118ad565b60008484015250505050565b60006118df8261188e565b6118e98185611899565b93506118f98185602086016118aa565b6119028161152d565b840191505092915050565b60008115159050919050565b6119228161190d565b82525050565b60006101208201905061193e600083018c611870565b61194b602083018b61187f565b818103604083015261195d818a6118d4565b905061196c6060830189611870565b6119796080830188611870565b61198660a0830187611870565b61199360c0830186611870565b6119a060e0830185611870565b6119ae610100830184611919565b9a9950505050505050505050565b60006020820190506119d16000830184611870565b92915050565b60006020820190506119ec6000830184611919565b92915050565b6119fb816116f8565b82525050565b600082825260208201905092915050565b6000611a1d8261188e565b611a278185611a01565b9350611a378185602086016118aa565b611a408161152d565b840191505092915050565b611a548161190d565b82525050565b600061012083016000830151611a73600086018261178f565b506020830151611a8660208601826119f2565b5060408301518482036040860152611a9e8282611a12565b9150506060830151611ab3606086018261178f565b506080830151611ac6608086018261178f565b5060a0830151611ad960a086018261178f565b5060c0830151611aec60c086018261178f565b5060e0830151611aff60e086018261178f565b50610100830151611b14610100860182611a4b565b508091505092915050565b60006020820190508181036000830152611b398184611a5a565b905092915050565b6000602082019050611b56600083018461187f565b92915050565b60008060408385031215611b7357611b726114a3565b5b6000611b8185828601611721565b9250506020611b92858286016114ce565b9150509250929050565b7f4f6e6c7920617574686f72697a6564207665726966696572732063616e20636160008201527f6c6c20746869732066756e6374696f6e00000000000000000000000000000000602082015250565b6000611bf8603083611899565b9150611c0382611b9c565b604082019050919050565b60006020820190508181036000830152611c2781611beb565b9050919050565b7f476f616c20646f6573206e6f7420657869737400000000000000000000000000600082015250565b6000611c64601383611899565b9150611c6f82611c2e565b602082019050919050565b60006020820190508181036000830152611c9381611c57565b9050919050565b7f476f616c20616c726561647920636c61696d6564000000000000000000000000600082015250565b6000611cd0601483611899565b9150611cdb82611c9a565b602082019050919050565b60006020820190508181036000830152611cff81611cc3565b9050919050565b7f43616e6e6f7420636f6d706c657465206d6f7265207461736b73207468616e2060008201527f6578697374000000000000000000000000000000000000000000000000000000602082015250565b6000611d62602583611899565b9150611d6d82611d06565b604082019050919050565b60006020820190508181036000830152611d9181611d55565b9050919050565b6000604082019050611dad6000830185611870565b611dba6020830184611870565b9392505050565b7f4d757374207374616b6520736f6d652045544800000000000000000000000000600082015250565b6000611df7601383611899565b9150611e0282611dc1565b602082019050919050565b60006020820190508181036000830152611e2681611dea565b9050919050565b7f476f616c206d7573742068617665206174206c65617374206f6e65207461736b600082015250565b6000611e63602083611899565b9150611e6e82611e2d565b602082019050919050565b60006020820190508181036000830152611e9281611e56565b9050919050565b7f4e487b7100000000000000000000000000000000000000000000000000000000600052601160045260246000fd5b6000611ed3826114ad565b91507fffffffffffffffffffffffffffffffffffffffffffffffffffffffffffffffff8203611f0557611f04611e99565b5b600182019050919050565b7f4e487b7100000000000000000000000000000000000000000000000000000000600052602260045260246000fd5b60006002820490506001821680611f5757607f821691505b602082108103611f6a57611f69611f10565b5b50919050565b60008190508160005260206000209050919050565b60006020601f8301049050919050565b600082821b905092915050565b600060088302611fd27fffffffffffffffffffffffffffffffffffffffffffffffffffffffffffffffff82611f95565b611fdc8683611f95565b95508019841693508086168417925050509392505050565b6000819050919050565b600061201961201461200f846114ad565b611ff4565b6114ad565b9050919050565b6000819050919050565b61203383611ffe565b61204761203f82612020565b848454611fa2565b825550505050565b600090565b61205c61204f565b61206781848461202a565b505050565b5b8181101561208b57612080600082612054565b60018101905061206d565b5050565b601f8211156120d0576120a181611f70565b6120aa84611f85565b810160208510156120b9578190505b6120cd6120c585611f85565b83018261206c565b50505b505050565b600082821c905092915050565b60006120f3600019846008026120d5565b1980831691505092915050565b600061210c83836120e2565b9150826002028217905092915050565b6121258261188e565b67ffffffffffffffff81111561213e5761213d61153e565b5b6121488254611f3f565b61215382828561208f565b600060209050601f8311600181146121865760008415612174578287015190505b61217e8582612100565b8655506121e6565b601f19841661219486611f70565b60005b828110156121bc57848901518255600182019150602085019450602081019050612197565b868310156121d957848901516121d5601f8916826120e2565b8355505b6001600288020188555050505b505050505050565b7f4f6e6c79206f776e65722063616e2063616c6c20746869732066756e6374696f60008201527f6e00000000000000000000000000000000000000000000000000000000000000602082015250565b600061224a602183611899565b9150612255826121ee565b604082019050919050565b600060208201905081810360008301526122798161223d565b9050919050565b7f496e76616c696420616464726573730000000000000000000000000000000000600082015250565b60006122b6600f83611899565b91506122c182612280565b602082019050919050565b600060208201905081810360008301526122e5816122a9565b9050919050565b7f4f6e6c7920676f616c2063726561746f722063616e20636c61696d0000000000600082015250565b6000612322601b83611899565b915061232d826122ec565b602082019050919050565b6000602082019050818103600083015261235181612315565b9050919050565b7f416c6c207461736b73206d75737420626520636f6d706c657465640000000000600082015250565b600061238e601b83611899565b915061239982612358565b602082019050919050565b600060208201905081810360008301526123bd81612381565b9050919050565b7f52657761726420616c726561647920636c61696d656400000000000000000000600082015250565b60006123fa601683611899565b9150612405826123c4565b602082019050919050565b60006020820190508181036000830152612429816123ed565b9050919050565b600061243b826114ad565b9150612446836114ad565b9250828202612454816114ad565b9150828204841483151761246b5761246a611e99565b5b5092915050565b7f4e487b7100000000000000000000000000000000000000000000000000000000600052601260045260246000fd5b60006124ac826114ad565b91506124b7836114ad565b9250826124c7576124c6612472565b5b828204905092915050565b60006124dd826114ad565b91506124e8836114ad565b9250828203905081811115612500576124ff611e99565b5b92915050565b6000612511826114ad565b915061251c836114ad565b925082820190508082111561253457612533611e99565b5b92915050565b600081905092915050565b50565b600061255560008361253a565b915061256082612545565b600082019050919050565b600061257682612548565b9150819050919050565b7f5472616e73666572206661696c65640000000000000000000000000000000000600082015250565b60006125b6600f83611899565b91506125c182612580565b602082019050919050565b600060208201905081810360008301526125e5816125a9565b9050919050565b7f4f6e6c7920676f616c2063726561746f722063616e2077697468647261770000600082015250565b6000612622601e83611899565b915061262d826125ec565b602082019050919050565b6000602082019050818103600083015261265181612615565b9050919050565b7f476f616c20686173206e6f20646561646c696e65000000000000000000000000600082015250565b600061268e601483611899565b915061269982612658565b602082019050919050565b600060208201905081810360008301526126bd81612681565b9050919050565b7f446561646c696e65206e6f742079657420706173736564000000000000000000600082015250565b60006126fa601783611899565b9150612705826126c4565b602082019050919050565b60006020820190508181036000830152612729816126ed565b9050919050565b7f4e6f742061207665726966696572000000000000000000000000000000000000600082015250565b6000612766600e83611899565b915061277182612730565b602082019050919050565b6000602082019050818103600083015261279581612759565b905091905056fea26469706673582212204be8248cb4630874c574c8ca0b02f5a1ee251ec147491d0edde9a10cdb8ab91564736f6c63430008140033",
  "linkReferences": {},
  "deployedLinkReferences": {}
}